:100000000C9463000C948B000C948B000C94E20411
:100010000C94E2040C94E2040C948B000C948B007E
:100020000C948B000C948B000C948B000C948B0024
:100030000C948B000C948B000C948B000C948B0014
:100040000C9416030C948B000C9486030C946003A0
:100050000C948B000C948B000C948B000C948B00F4
:100060000C94B8030C948B000000000800020100FF
:100070000003040700000000000000000000000072
:1000800023002600290000000000240027002A0089
:1000900000000000250028002B00040404040404D0
:1000A0000404020202020202030303030303010227
:1000B00004081020408001020408102001020408F6
:1000C0001020A9058E0811241FBECFEFD8E0DEBF97
:1000D000CDBF23E0A2E8B1E001C01D92A830B20775
:1000E000E1F711E0A0E0B1E0E8E1F2E102C0059043
:1000F0000D92A238B107D9F710E0C2E6D0E004C0F3
:100100002197FE010E94F408C136D107C9F70E9469
:100110009D060C94FF080C9400003FB7F894809162
:100120003C0290913D02A0913E02B0913F0226B563
:10013000A89B05C02F3F19F00196A11DB11D3FBF1F
:10014000BA2FA92F982F8827820F911DA11DB11DAD
:10015000BC01CD0142E0660F771F881F991F4A95A9
:10016000D1F70895CF92DF92EF92FF920F931F93F2
:10017000CF93DF936C017A018B01C0E0D0E0CE1504
:10018000DF0581F0D8016D918D01D601ED91FC91D3
:100190000190F081E02DC6010995892B11F021967F
:1001A000EECF7E01C701DF91CF911F910F91FF909C
:1001B000EF90DF90CF900895FC01538D448D252F53
:1001C00030E0842F90E0821B930B541710F0CF96F1
:1001D000089501970895FC01918D828D981761F023
:1001E000828DDF01A80FB11D5D968C91928D9F5F6E
:1001F0009F73928F90E008958FEF9FEF0895FC0119
:10020000918D828D981731F0828DE80FF11D858DCB
:1002100090E008958FEF9FEF0895FC01918D228D5E
:10022000892F90E0805C9F4F821B91098F739927E3
:10023000089580E492E00E940D0121E0892B09F4E9
:1002400020E0822F0895FC01848DDF01A80FB11DED
:10025000A35ABF4F2C91848D90E001968F739927FC
:10026000848FA689B7892C93A089B1898C918370DA
:1002700080648C93938D848D981306C00288F389D3
:10028000E02D80818F7D80830895EF92FF920F9300
:100290001F93CF93DF93EC0181E0888F9B8D8C8D32
:1002A000981305C0E889F989808185FD26C0F62E5E
:1002B0000B8D10E00F5F1F4F0F731127E02E8C8DF9
:1002C000E8120CC00FB607FCFACFE889F9898081E3
:1002D00085FFF5CFCE010E942301F1CF8B8DFE016A
:1002E000E80FF11DE35AFF4FF0829FB7F8940B8F90
:1002F000EA89FB89808180620AC09FB7F894EE8901
:10030000FF896083E889F9898081837080648083B4
:100310009FBF81E090E0DF91CF911F910F91FF90FF
:10032000EF900895CF93DF93EC01888D8823C9F077
:10033000EA89FB89808185FD05C0A889B9898C91EE
:1003400086FD0FC00FB607FCF5CF808185FFF2CF89
:10035000A889B9898C9185FFEDCFCE010E94230138
:10036000E7CFDF91CF91089580E090E0892B29F0CD
:100370000E94190181110C940000089585ED80936D
:10038000BC008091BC0084FDFCCF10920702089550
:100390004091E301262F30E0240F311D2132310539
:1003A000DCF4209107022430C9F4FC0180E090E0E5
:1003B000861758F43091E3012191DC01AD53BE4F13
:1003C000A30FB11D2C930196F3CF8091E301680F29
:1003D0006093E30180E0089581E0089582E008954C
:1003E00008958FEF9FEF08958FEF9FEF089580910D
:1003F000C20190E09195819591090895CF93DF9383
:10040000CB01EA01642F0E94C801CE01DF91CF9198
:100410000895CF93DF931F92CDB7DEB7698361E074
:10042000CE0101960E94C80181E090E00F90DF911B
:10043000CF91089520912F0230913002281739076B
:1004400071F490912D0280912E02981741F0E09165
:100450002D02F0E0EE57FE4F808190E008958FEF7F
:100460009FEF08951F93CF93DF93DC015C968D91EE
:100470009C915D97009739F421E030E013963C930E
:100480002E9312973BC05196ED91FC915297509646
:100490002C915097322F30951FB75E964C915E97F6
:1004A000742F727041FD6095F8944081772311F0AC
:1004B000422B01C043234083EC012197F1F748E030
:1004C000508160FF02C0522B01C053235083EC01C6
:1004D0002197F1F76695415099F78081772319F0BC
:1004E0008323808302C0282B20831FBF5C968D91BD
:1004F0009C915D970197F1F781E090E0DF91CF91BA
:100500001F91089520912F0230913002281739074A
:1005100071F480912E0220912D0290E0805C9F4F1B
:10052000821B910960E470E00E94AA08089580E0AF
:1005300090E0089520912F0230913002281739075A
:10054000B9F490912D0280912E02981789F0E091D4
:100550002D02F0E0EE57FE4F808120912D0230E019
:100560002F5F3F4F2F73332720932D0290E0089584
:100570008FEF9FEF0895089580E090E00895009731
:1005800069F0FC0101900020E9F73197AF01481BA9
:10059000590BBC0180E492E00C94B20080E090E042
:1005A00008950C94BF028F929F92AF92BF920F93C7
:1005B0001F93CF93DF93CDB7DEB7A1970FB6F89413
:1005C000DEBF0FBECDBF19A2423008F44AE08E0153
:1005D0000F5D1F4F842E912CA12CB12CA5019401ED
:1005E0000E94BE08E62FB901CA0101501109EA3084
:1005F00014F4E05D01C0E95CD801EC93232B242BBB
:10060000252B61F7C8010E94BF02A1960FB6F8948E
:10061000DEBF0FBECDBFDF91CF911F910F91BF9075
:10062000AF909F908F9008950E94FA081F920F92AA
:100630000FB60F9211242F933F938F939F93AF93F5
:10064000BF938091380290913902A0913A02B09103
:100650003B023091370223E0230F2D3720F401961F
:10066000A11DB11D05C026E8230F0296A11DB11DD5
:10067000209337028093380290933902A0933A0274
:10068000B0933B0280913C0290913D02A0913E02CA
:10069000B0913F020196A11DB11D80933C02909341
:1006A0003D02A0933E02B0933F02BF91AF919F9154
:1006B0008F913F912F910F900FBE0F901F90189523
:1006C0001F920F920FB60F9211242F933F934F93C7
:1006D0005F936F937F938F939F93AF93BF93EF93AA
:1006E000FF9380E492E00E942301FF91EF91BF917C
:1006F000AF919F918F917F916F915F914F913F91BA
:100700002F910F900FBE0F901F9018951F920F9270
:100710000FB60F9211242F938F939F93EF93FF9314
:10072000E0915002F09151028081E0915602F091E7
:10073000570282FD12C09081809159028F5F8F73A2
:1007400020915A02821751F0E0915902F0E0E05CEA
:10075000FD4F958F8093590201C08081FF91EF91E9
:100760009F918F912F910F900FBE0F901F90189512
:100770001F920F920FB60F9211242F933F934F9316
:100780005F936F937F938F939F93AF93BF93EF93F9
:10079000FF938091B900887F803609F49CC068F58A
:1007A000883209F45BC090F4803109F454C038F405
:1007B000882309F4F2C0883009F44DC0F2C08831B2
:1007C00009F44CC0803209F45DC0EBC0803409F4F8
:1007D00068C048F4803309F455C0883309F0E1C09B
:1007E00080930602D4C0803509F44FC0883509F4DF
:1007F0005DC0883409F0D5C0D2C0883909F4C3C0BF
:10080000A8F4883709F467C038F4883609F463C05F
:10081000803709F460C0C5C0883809F4B4C0803995
:1008200009F45FC0803809F0BCC05BC0803B09F4AC
:1008300084C038F4803A09F466C0883A09F47DC06F
:10084000B0C0803C09F4A3C0883C09F4A0C0883B38
:1008500009F486C0A6C080912C0210C090912B0292
:1008600080912A02981770F5E0912B0281E08E0F9B
:1008700080932B02F0E0E65FFD4F80818093BB0008
:1008800085EC82C0809306028AC0E0912B0281E051
:100890008E0F80932B028091BB00F0E0E65FFD4F4E
:1008A000808390912B0280912A026AC0E0912B02F2
:1008B00081E08E0F80932B028091BB00F0E0E65F19
:1008C000FD4F808380910902811169C081E080938E
:1008D000080284EA5DC083E080930702109205025B
:1008E000CFCF80910502803208F04DC0E091050223
:1008F00081E08E0F809305028091BB00F0E0EB5108
:10090000FE4F8083BDCF85EC8093BC001092070220
:1009100080910502803230F4E0910502F0E0EB5165
:10092000FE4F10826091050270E085EE91E0E0E0FC
:10093000F0E009951092050234C084E0809307022C
:100940001092E4011092E301E0E0F0E0099580915B
:10095000E301811105C081E08093E3011092C3019E
:10096000E091E40181E08E0F8093E401F0E0ED532B
:10097000FE4F80818093BB009091E4018091E30160
:10098000981708F47DCF85E88093BC000AC085ECF9
:100990008093BC001092070204C0109206020E94CD
:1009A000BE01FF91EF91BF91AF919F918F917F9188
:1009B0006F915F914F913F912F910F900FBE0F90CC
:1009C0001F9018951F920F920FB60F9211242F931C
:1009D0003F934F935F936F937F938F939F93AF93C7
:1009E000BF93EF93FF93E0912F02F0913002309785
:1009F00009F451C0968DA685B785858591FF04C001
:100A00009C91892329F447C09C91892309F043C014
:100A1000A389B4899C918589809589238C93868943
:100A200097890197F1F7608D718DA685B7855585FA
:100A300038E020E0CB010197F1F7822F90E0959507
:100A40008795282F4C91452309F02068315091F764
:100A5000868D81FD209580912E0290E001968F7306
:100A6000992730912D02381749F0A0912E02B0E05D
:100A7000AE57BE4F2C9380932E0203C0868D8160AB
:100A8000868F828D938D0197F1F7A389B4899C910C
:100A90008589892B8C93FF91EF91BF91AF919F91A5
:100AA0008F917F916F915F914F913F912F910F9017
:100AB0000FBE0F901F90189590E0FC01E859FF4F72
:100AC0002491FC01E255FF4F3491FC01E656FF4FA3
:100AD000E491EE2309F43CC0222339F1233091F054
:100AE00038F42130A9F0223001F584B58F7D12C091
:100AF000273091F02830A1F02430B9F480918000A3
:100B00008F7D03C0809180008F77809380000DC01F
:100B100084B58F7784BD09C08091B0008F7703C002
:100B20008091B0008F7D8093B000F0E0EE0FFF1F4A
:100B3000E057FF4FA591B4919FB7F894611104C09D
:100B40008C913095382302C0EC913E2B3C939FBF93
:100B50000895CF93DF93109243021092420288EEE1
:100B600093E0A0E0B0E08093440290934502A0930C
:100B70004602B093470224E031E0309341022093D3
:100B8000400225EC30E030934D0220934C0224ECDF
:100B900030E030934F0220934E0220EC30E030934F
:100BA00051022093500221EC30E030935302209305
:100BB000520222EC30E0309355022093540226EC8E
:100BC00030E030935702209356021092590210924F
:100BD0005A0210925B0210925C021092E002109294
:100BE000DF028093E1029093E202A093E302B093CC
:100BF000E40226E131E03093DE022093DD02109220
:100C0000EC021092EB028093ED029093EE02A0931F
:100C1000EF02B093F00288E291E09093EA028093B1
:100C2000E902109200031092FF0210920203109248
:100C30000103109204031092030310920603109212
:100C40000503609107036E7F6D7F609307036695D0
:100C5000617081E0682783E00E945C05E1EBF0E0D1
:100C60002491EDE9F0E08491882399F090E0880FD9
:100C7000991FFC01EA57FF4FA591B491FC01E05781
:100C8000FF4F859194918FB7F894EC91E22BEC9300
:100C90008FBFE1EBF0E0E491E093F902EDE9F0E0E1
:100CA000E491F0E0EE0FFF1FE057FF4F8591949124
:100CB0009093FB028093FA02E0EBF0E02491ECE9E0
:100CC000F0E084918823C1F090E0880F991FFC0127
:100CD000EA57FF4FC591D491FC01E057FF4FA59112
:100CE000B4919FB7F8948881E22FE0958E23888392
:100CF0008C91E823EC939FBF8091070381FD04C092
:100D000061E082E00E945C0582E08093F502E0EB06
:100D1000F0E0E491E093F602ECE9F0E0E491F0E039
:100D2000EE0FFF1FE458FF4F859194919093F802C6
:100D30008093F702DF91CF910895789484B5826013
:100D400084BD84B5816084BD85B5826085BD85B56F
:100D5000816085BD80916E00816080936E001092ED
:100D60008100809181008260809381008091810068
:100D700081608093810080918000816080938000F9
:100D80008091B10084608093B1008091B000816057
:100D90008093B00080917A00846080937A00809183
:100DA0007A00826080937A0080917A0081608093DB
:100DB0007A0080917A00806880937A001092C10056
:100DC000E0915002F091510282E08083E0914C0268
:100DD000F0914D021082E0914E02F0914F028FECA3
:100DE000808310925802E0915402F091550286E0FF
:100DF0008083E0915202F091530280818061808370
:100E0000E0915202F0915302808188608083E091EA
:100E10005202F0915302808180688083E0915202F7
:100E2000F091530280818F7D808310920403109291
:100E30000303109202031092010310920003109218
:100E4000FF028DE991E09093060380930503909152
:100E5000F502963108F058C02DEB30E030930003D6
:100E60002093FF022BE931E030930203209301032A
:100E70002CE231E030930403209303034091680097
:100E8000983058F031E09E3008F430E021E0822FB5
:100E900001C0880F3A95EAF701C084E0842B809363
:100EA0006800983038F09E3040F0963148F42CE6D7
:100EB00030E008C02DE630E005C02BE630E002C08F
:100EC00020E030E03093FD022093FC02983030F4B3
:100ED00081E001C0880F9A95EAF70EC0292F30E013
:100EE0009E3018F42850310902C02E50310981E09B
:100EF00001C0880F2A95EAF78093FE0280910503CE
:100F0000909106030197F1F78091030390910403F8
:100F1000892B49F1E0912F02F091300222E0E93E65
:100F2000F20709F1309739F0A389B4899C9185893A
:100F3000809589238C93809107038E7F809307038C
:100F400010922E0210922D0289EE92E090933002C0
:100F500080932F02E091FC02F091FD02908180913C
:100F6000FE02892B8083C0E0D0E089EE92E00E94EF
:100F70008202892B09F495C089EE92E00E949A02C0
:100F8000209721F4823409F48AC006C0C130D1050B
:100F900061F48D3409F483C086E391E00E94BF02BE
:100FA00083E591E00E94BF027CC09E012D7FAE01CF
:100FB000457F4430510509F471C02830310509F4EA
:100FC0006DC0C530D105E1F4212F012E000C330B8B
:100FD000322F2227A901480F511D87FD5A955093A2
:100FE00036024093350286E591E00E94D10289E500
:100FF00091E00E94D10260913502709136021AC0D0
:10100000C730D10519F5212F012E000C330B322FDB
:101010002227A901480F511D87FD5A95509334028C
:10102000409333028BE691E00E94D102609133023B
:101030007091340280E090E04AE00E94D30281E6A1
:1010400091E00E94D10288E691E021C0C930D1052B
:1010500009F5212F012E000C330B322F2227A90175
:10106000480F511D87FD5A9550933202409331022B
:1010700085E791E00E94D1026091310270913202C5
:1010800080E090E04AE00E94D30281E691E00E9475
:10109000D10205C0C031D10524F401C0182F21961A
:1010A00064CF89EE92E00E948202892B29F089EEBA
:1010B00092E00E949A02F5CF8EE791E00E94BF0273
:1010C00083E591E00E94BF020E948D004B015C010C
:1010D00088EEC82E83E0D82EE12CF12C0E948D00E2
:1010E000DC01CB0188199909AA09BB09883E934004
:1010F000A105B10598F351E0C51AD108E108F1083E
:1011000088EE880E83E0981EA11CB11CC114D10486
:10111000E104F10419F70E94B40125CF88E291E0BF
:101120009093EA028093E90280912F02909130021D
:10113000895E924071F4E091FC02F091FD02908191
:101140008091FE0280958923808310923002109254
:101150002F02089597FB072E16F4009407D077FD11
:1011600009D00E94E00807FC05D03EF490958195D7
:101170009F4F0895709561957F4F0895A1E21A2EB3
:10118000AA1BBB1BFD010DC0AA1FBB1FEE1FFF1F2B
:10119000A217B307E407F50720F0A21BB30BE40B7B
:1011A000F50B661F771F881F991F1A9469F76095C2
:1011B0007095809590959B01AC01BD01CF0108957C
:1011C000AA1BBB1B51E107C0AA1FBB1FA617B7076D
:1011D00010F0A61BB70B881F991F5A95A9F7809589
:1011E0009095BC01CD010895EE0FFF1F0590F4917D
:1011F000E02D099481E090E0F8940C94FF0810E051
:10120000C2E6D0E004C0FE010E94F4082196C33675
:08121000D107C9F7F894FFCFE4
:10121800000000004501B200DC0092010D01EB0066
:10122800FF00000000000902FE01BC02F001F70106
:10123800F401F101000000003202B200BC02F0012A
:1012480082029A021A0243616E6E6F742066696E9A
:1012580064207468652064617461206865616465F0
:10126800722E000D0A007B200022706D31223A2078
:10127800002075672F6D33002C200022706D325FBF
:1012880035223A200022706D3130223A2000207D2C
:02129800000054
:00000001FF
