:100000000C94DA000C9402010C9402010C9402018D
:100010000C9402010C9402010C9402010C94020154
:100020000C9402010C9402010C9402010C94020144
:100030000C9402010C9402010C9402010C94020134
:100040000C9474050C9402010C94E4050C94BE0508
:100050000C9402010C9402010C9402010C94020114
:100060000C9416060C94020100407A10F35A00A07A
:10007000724E18090010A5D4E80000E87648170071
:1000800000E40B54020000CA9A3B000000E1F505B1
:10009000000080969800000040420F000000A086FB
:1000A00001000000102700000000E803000000002D
:1000B0006400000000000A000000000001000000D1
:1000C00000002C76D888DC674F0823DFC1DFAE59EB
:1000D000E1B1B796E5E3E453C63AE651997696E87E
:1000E000E6C28426EB898C9B62ED407C6FFCEFBC02
:1000F0009C9F40F2BAA56FA5F490055A2AF75C932D
:100100006B6CF9676DC11BFCE0E40D47FEF520E662
:10011000B500D0ED902E0300943577050080841E45
:10012000080000204E0A000000C80C333333330FA0
:10013000986E12831141EF8D2114893BE65516CF3D
:10014000FEE6DB18D1844B381BF77C1D901DA4BB49
:10015000E424203284725E228100C9F124ECA1E5FE
:100160003D2700000000240027002A0000000000B6
:10017000250028002B0004040404040404040202E3
:100180000202020203030303030301020408102016
:100190004080010204081020010204081020000021
:1001A0000008000201000003040700000000000036
:1001B0000000440711241FBECFEFD8E0DEBFCDBF43
:1001C00022E0AAE7B1E001C01D92A83CB207E1F726
:1001D00011E0A0E0B1E0EAEBFFE102C005900D9272
:1001E000AA37B107D9F710E0CAEDD0E004C02197D3
:1001F000FE010E94B20CC93DD107C9F70E947D07DC
:100200000C94DB0F0C94000090E0FC01E256FE4FD2
:100210002491FC01E657FE4F3491FC01EA58FE4F51
:10022000E491EE2309F43CC0222339F1233091F00C
:1002300038F42130A9F0223001F584B58F7D12C049
:10024000273091F02830A1F02430B9F4809180005B
:100250008F7D03C0809180008F77809380000DC0D8
:1002600084B58F7784BD09C08091B0008F7703C0BB
:100270008091B0008F7D8093B000F0E0EE0FFF1F03
:10028000E459FE4FA591B4919FB7F894611104C051
:100290008C913095382302C0EC913E2B3C939FBF4C
:1002A0000895CF93DF9390E0FC01E657FE4F249131
:1002B000FC01EA58FE4F8491882361F190E0880F99
:1002C000991FFC01EE59FE4FC591D491FC01E459F0
:1002D000FE4FA591B491611109C09FB7F894888130
:1002E000209582238883EC912E230BC0623061F429
:1002F0009FB7F8948881322F309583238883EC91BF
:100300002E2B2C939FBF06C08FB7F894E8812E2B1D
:1003100028838FBFDF91CF9108958E3008F08E50E3
:100320008770806480937C0080917A0080648093E1
:100330007A0080917A0086FDFCCF80917800209130
:10034000790090E0922B08953FB7F89480911702BE
:1003500090911802A0911902B0911A0226B5A89B9B
:1003600005C02F3F19F00196A11DB11D3FBFBA2F47
:10037000A92F982F8827820F911DA11DB11DBC01A7
:10038000CD0142E0660F771F881F991F4A95D1F76C
:1003900008958F929F92AF92BF92CF92DF92EF9289
:1003A000FF926B017C010E94A4014B015C01C1140E
:1003B000D104E104F104F1F00E94A401DC01CB01BD
:1003C00088199909AA09BB09883E9340A105B1057E
:1003D00070F321E0C21AD108E108F10888EE880E16
:1003E00083E0981EA11CB11CC114D104E104F104E6
:1003F00019F7DDCFFF90EF90DF90CF90BF90AF90D7
:100400009F908F900895E0910C02F0910D0230972B
:1004100029F0109209021092080209940895089593
:10042000CF92DF92EF92FF920F931F93CF93DF93C0
:100430006C017A018B01C0E0D0E0CE15DF0581F0C0
:10044000D8016D918D01D601ED91FC910190F08163
:10045000E02DC6010995892B11F02196EECF7E0182
:10046000C701DF91CF911F910F91FF90EF90DF9027
:10047000CF900895FC01538D448D252F30E0842FBB
:1004800090E0821B930B541710F0CF9608950197BC
:100490000895FC01918D828D981761F0828DDF01A6
:1004A000A80FB11D5D968C91928D9F5F9F73928F67
:1004B00090E008958FEF9FEF0895FC01918D828D5C
:1004C000981731F0828DE80FF11D858D90E0089529
:1004D0008FEF9FEF0895FC01918D228D892F90E081
:1004E000805C9F4F821B91098F73992708958BE140
:1004F00092E00E946B0221E0892B09F420E0822F18
:100500000895FC01848DDF01A80FB11DA35ABF4FD0
:100510002C91848D90E001968F739927848FA68902
:10052000B7892C93A089B1898C91837080648C9356
:10053000938D848D981306C00288F389E02D808105
:100540008F7D80830895EF92FF920F931F93CF9337
:10055000DF93EC0181E0888F9B8D8C8D981305C013
:10056000E889F989808185FD26C0F62E0B8D10E083
:100570000F5F1F4F0F731127E02E8C8DE8120CC0F8
:100580000FB607FCFACFE889F989808185FFF5CF9E
:10059000CE010E948102F1CF8B8DFE01E80FF11D8B
:1005A000E35AFF4FF0829FB7F8940B8FEA89FB89DB
:1005B000808180620AC09FB7F894EE89FF896083CA
:1005C000E889F98980818370806480839FBF81E09E
:1005D00090E0DF91CF911F910F91FF90EF900895E0
:1005E000CF93DF93EC01888D8823C9F0EA89FB89DA
:1005F000808185FD05C0A889B9898C9186FD0FC0D1
:100600000FB607FCF5CF808185FFF2CFA889B989A5
:100610008C9185FFEDCFCE010E948102E7CFDF9163
:10062000CF91089580E090E0892B29F00E94770215
:1006300081110C940000089585ED8093BC00809199
:10064000BC0084FDFCCF1092070208954091BA01CE
:10065000262F30E0240F311D21323105DCF42091AA
:1006600007022430C9F4FC0180E090E0861758F4BA
:100670003091BA012191DC01A656BE4FA30FB11DE6
:100680002C930196F3CF8091BA01680F6093BA0161
:1006900080E0089581E0089582E008950895E09152
:1006A0000B0280910A02E81730F4F0E0E658FE4FA2
:1006B000808190E008958FEF9FEF089590910B0255
:1006C00080910A02981750F4E92FF0E0E658FE4FA7
:1006D000208130E09F5F90930B0202C02FEF3FEF2D
:1006E000C901089580910A0290E020910B02821BBB
:1006F00091090895CF93DF93CB01EA01642F0E9403
:100700002603CE01DF91CF910895CF93DF931F92FF
:10071000CDB7DEB7698361E0CE0101960E94260362
:1007200081E090E00F90DF91CF910895089580E0EF
:1007300090E008950E94B70F6115710579F0FB01F3
:1007400001900020E9F73197AF01461B570BDC0100
:10075000ED91FC910280F381E02D099480E090E01E
:1007600008958F929F92AF92BF920F931F93CF9352
:10077000DF93CDB7DEB7A1970FB6F894DEBF0FBEFB
:10078000CDBF19A2423008F44AE08E010F5D1F4F21
:10079000842E912CA12CB12CA50194010E94900CC7
:1007A000E62FB901CA0101501109EA3014F4E05DE5
:1007B00001C0E95CD801EC93232B242B252B61F796
:1007C000B8018BE192E00E949C03A1960FB6F894C9
:1007D000DEBF0FBECDBFDF91CF911F910F91BF90B4
:1007E000AF909F908F900895CF92DF92EF92FF92FB
:1007F000CF93DF936B017C016DE28BE192E00E946D
:10080000A302EC0166277727CB016C197D098E09BD
:100810009F094AE00E94B1038C0F9D1FDF91CF9189
:10082000FF90EF90DF90CF9008958F929F92AF92BC
:10083000BF92CF92DF92EF92FF920F931F93CF93CD
:10084000DF936B017C01142F9B01AC010E94CB0D47
:10085000882319F06AE271E027C046015701E89445
:10086000B7F82FEF3FEF4FE75FE7C501B4010E94F4
:10087000CB0D81110DC02FEF3FEF4FE75FE7C501B3
:10088000B4010E94350B18161CF46EE271E00CC026
:100890002FEF3FEF4FE75FE4C701B6010E94C60D9F
:1008A000181694F462E371E08BE192E0DF91CF914E
:1008B0001F910F91FF90EF90DF90CF90BF90AF907E
:1008C0009F908F900C949C032FEF3FEF4FE75FECCE
:1008D000C701B6010E94350B87FDE4CF20E030E070
:1008E000A901C701B6010E94350B87FF0BC06DE25D
:1008F0008BE192E00E94A302EC01F7FAF094F7F882
:10090000F09402C0C0E0D0E000E060E070E080E081
:100910009FE3101741F020E030E040E251E40E94F4
:10092000250D0F5FF6CFA70196010E94B90C6B0150
:100930007C010E94970D4B015C014AE00E94B103CB
:10094000C80FD91F1123B9F1C501B4010E943A0B98
:100950009B01AC01C701B6010E94B80C6B017C0180
:100960006EE28BE192E00E94A302C80FD91F20E043
:1009700030E040E251E4C701B6010E949B0B4B01FD
:100980005C010E94970D6B01E12CF12C4AE0C7013C
:10099000B6010E94B103C80FD91FC701B6010E945A
:1009A0003A0B9B01AC01C501B4010E94B80C6B016C
:1009B0007C011150E1F6CE01DF91CF911F910F9193
:1009C000FF90EF90DF90CF90BF90AF909F908F906F
:1009D0000895CF92DF92EF92FF920F931F93CF93E0
:1009E000DF93CDB7DEB7A1970FB6F894DEBF0FBE89
:1009F000CDBF60910E0270910F0280911002909114
:100A000011028E010F5F1F4F22E044E00E94E308B5
:100A10006C010097C1F0FC0101900020E9F73197CB
:100A20008F01081B190BB8016F5F7F4F80E090E0CA
:100A30000E94F10E7C01009759F0FC011082B60172
:100A40000E94C50F07C000E010E0E12CF12C02C0AD
:100A500000E010E00115110511F4198212C00F31E8
:100A6000110510F00FE110E0A801B701CE010196C9
:100A70000E94CC0FE1E0F0E0EC0FFD1FE00FF11F52
:100A80001082BE016F5F7F4F8BE192E00E949C035A
:100A900066E371E08BE192E00E949C03BE016F5F10
:100AA0007F4F88EB92E00E949C0361E08DE00E9402
:100AB000040164EF71E080E090E00E94C90160E011
:100AC0008DE00E940401C701A1960FB6F894DEBF25
:100AD0000FBECDBFDF91CF911F910F91FF90EF908F
:100AE000DF90CF900C94680E1F920F920FB60F926A
:100AF00011242F933F938F939F93AF93BF93809134
:100B0000130290911402A0911502B0911602309137
:100B1000120223E0230F2D3720F40196A11DB11DF1
:100B200005C026E8230F0296A11DB11D20931202D5
:100B30008093130290931402A0931502B0931602AF
:100B40008091170290911802A0911902B0911A0297
:100B50000196A11DB11D8093170290931802A093D6
:100B60001902B0931A02BF91AF919F918F913F915B
:100B70002F910F900FBE0F901F9018951F920F92FC
:100B80000FB60F9211242F933F934F935F936F9360
:100B90007F938F939F93AF93BF93EF93FF938BE1DB
:100BA00092E00E948102FF91EF91BF91AF919F91DE
:100BB0008F917F916F915F914F913F912F910F9006
:100BC0000FBE0F901F9018951F920F920FB60F92A5
:100BD00011242F938F939F93EF93FF93E0912B0218
:100BE000F0912C028081E0913102F091320282FD7D
:100BF00012C09081809134028F5F8F7320913502F3
:100C0000821751F0E0913402F0E0E55EFD4F958FE0
:100C10008093340201C08081FF91EF919F918F9169
:100C20002F910F900FBE0F901F9018951F920F924B
:100C30000FB60F9211242F933F934F935F936F93AF
:100C40007F938F939F93AF93BF93EF93FF93809185
:100C5000B900887F803609F49CC068F5883209F4B1
:100C60005BC090F4803109F454C038F4882309F44F
:100C7000F6C0883009F44DC0F6C0883109F44CC084
:100C8000803209F45DC0EFC0803409F468C048F4D4
:100C9000803309F455C0883309F0E5C08093DD0145
:100CA000D8C0803509F44FC0883509F45DC0883458
:100CB00009F0D9C0D6C0883909F4C7C0A8F488376C
:100CC00009F467C038F4883609F463C0803709F442
:100CD00060C0C9C0883809F4B8C0803909F45FC061
:100CE000803809F0C0C05BC0803B09F486C038F48E
:100CF000803A09F466C0883A09F47FC0B4C0803CE9
:100D000009F4A7C0883C09F4A4C0883B09F48AC050
:100D1000AAC08091000210C09091FF018091FE0155
:100D2000981770F5E091FF0181E08E0F8093FF012D
:100D3000F0E0E252FE4F80818093BB0085EC86C0DC
:100D40008093DD018EC0E091FF0181E08E0F8093E2
:100D5000FF018091BB00F0E0E252FE4F8083909152
:100D6000FF018091FE016EC0E091FF0181E08E0FD6
:100D70008093FF018091BB00F0E0E252FE4F808340
:100D80008091060281116DC081E08093050284EAA2
:100D900061C083E0809307021092DC01CFCF809185
:100DA000DC01803208F051C0E091DC0181E08E0F5F
:100DB0008093DC018091BB00F0E0E454FE4F80831F
:100DC000BDCF85EC8093BC00109207028091DC01BE
:100DD000803230F4E091DC01F0E0E454FE4F108208
:100DE0006091DC0170E0E0910102F09102028CEB75
:100DF00091E009951092DC0136C084E080930702EF
:100E00001092BB011092BA01E0910302F09104022A
:100E100009958091BA01811105C081E08093BA01E2
:100E200010929A01E091BB0181E08E0F8093BB018B
:100E3000F0E0E656FE4F80818093BB009091BB01AD
:100E40008091BA01981708F479CF85E88093BC00A7
:100E50000AC085EC8093BC001092070204C0109277
:100E6000DD010E941C03FF91EF91BF91AF919F9113
:100E70008F917F916F915F914F913F912F910F9043
:100E80000FBE0F901F901895EBE1F2E013821282D3
:100E900088EE93E0A0E0B0E084839583A683B783D7
:100EA0002AE031E03183208325EC30E03587248748
:100EB00024EC30E03787268720EC30E0318B208B24
:100EC00021EC30E0338B228B22EC30E0358B248B0D
:100ED00026EC30E0378B268B118E128E138E148EFB
:100EE000E8EBF2E01382128284839583A683B783B2
:100EF0008CE191E0918380830895789484B5826039
:100F000084BD84B5816084BD85B5826085BD85B5AD
:100F1000816085BD80916E00816080936E0010922B
:100F200081008091810082608093810080918100A6
:100F30008160809381008091800081608093800037
:100F40008091B10084608093B1008091B000816095
:100F50008093B00080917A00846080937A008091C1
:100F60007A00826080937A0080917A008160809319
:100F70007A0080917A00806880937A001092C10094
:100F800010920B0210920A021092090210920802AB
:100F90001092070281E0809306021092050261E040
:100FA00082E10E94040161E083E10E9404018091DA
:100FB000B9008E7F8093B9008091B9008D7F8093B6
:100FC000B90088E48093B80085E48093BC0083E096
:100FD00092E090930402809303028FE092E090935A
:100FE0000202809301028CE08093BA0089EE94E0C3
:100FF00090930D0280930C02E0912B02F0912C0251
:1010000082E08083E0912702F09128021082E09133
:101010002902F0912A028FEC808310923302E09132
:101020002F02F091300286E08083E0912D02F09152
:101030002E02808180618083E0912D02F0912E024A
:10104000808188608083E0912D02F0912E02808162
:1010500080688083E0912D02F0912E0280818F7D47
:10106000808360E08EE00E94510160E08FE00E948A
:10107000510161E08DE00E94510108E010E0C0E004
:10108000D0E08EE00E948D01C80FD91F01501109D8
:10109000C1F793E0D695C7959A95E1F728E0E22E3F
:1010A000F12C00E010E08FE00E948D01080F191F65
:1010B00081E0E81AF108B9F783E0169507958A955B
:1010C000E1F7B801012E000C880B990B0E943C0B34
:1010D0009B01AC0163E373E383E590E40E94250D7B
:1010E0006B017C01BE010D2E000C880B990B0E9438
:1010F0003C0B9B01AC01C701B6010E949B0B6B012D
:101100007C0124EA30E74DE75FE30E94B80C20E061
:1011100030E040E751E40E949B0B24E13EEA47EEB9
:101120005FE30E94250D20E030E0A9010E94B90C88
:1011300060930E0270930F0280931002909311023D
:1011400060E471E08BE192E00E949C03B80180E0D2
:1011500090E04AE00E94B10369E371E08BE192E024
:101160000E949C03BE0180E090E04AE00E94B1032F
:1011700069E471E08BE192E00E949C0342E0C701C8
:10118000B6010E9415046DE571E08BE192E00E94CA
:101190009C0360910E0270910F0280911002909159
:1011A000110242E00E94150466E371E08BE192E0D7
:1011B0000E949C0364E670E080E090E00E94C90118
:1011C0000E9412035ACFEF920F931F93CF93DF9396
:1011D000E80147FD02C034E001C034E1042E000CF8
:1011E000550B57FF03C0519541955109E32E022F2E
:1011F000242FAE010E940309CE01DF91CF911F91F0
:101200000F91EF900895A9E0B0E0E9E0F9E00C94C7
:101210005F0C6A01122FB02E2BE3201720F0FF2461
:10122000F394F00E02C02CE3F22E0F2D27E0AE0156
:101230004F5F5F4F0E945D0ABC014981842F897016
:10124000813031F0E1FC06C0E0FE06C090E205C04E
:101250009DE203C09BE201C090E05E2D507143FF10
:101260003CC0911102C083E001C084E0811718F4F2
:10127000212F281B01C020E051110BC0F601822F45
:1012800030E2882319F031938150FBCFC20ED11C7C
:1012900020E0992329F0D6019C93F60131966F0145
:1012A000C6010396E2FE0AC03EE4D6013C9341E447
:1012B00011964C93119712963C9306C03EE6F601A8
:1012C000308341E641833283FC01322F40E23323F5
:1012D00009F442C041933150FACF42FF44C091110A
:1012E00002C083E001C084E0811718F4212F281B7D
:1012F00001C020E051110BC0F601822F30E288239B
:1013000019F031938150FBCFC20ED11C20E09923FC
:1013100029F0D6019C93F60131966F01C601039620
:10132000E2FE0BC039E4D6013C933EE411963C93B7
:10133000119736E412963C9307C039E6F6013083E4
:101340003EE6318336E63283FC01322F40E233231E
:1013500019F041933150FBCFFC01E20FF11D1082D7
:101360008EEF9FEFA6C021E030E0911102C020E097
:1013700030E0161617061CF4FB01319602C0E1E0BE
:10138000F0E02E0F3F1FBB2021F0EB2DF0E0319657
:1013900002C0E0E0F0E02E0F3F1FE12FF0E02E173B
:1013A0003F071CF4121B212F01C020E08E2D8871F5
:1013B00059F4F601822F30E2882319F031938150DD
:1013C000FBCFC20ED11C20E0992329F0D6019C93BB
:1013D000F60131966F0151110BC0F601822F90E397
:1013E000882319F091938150FBCFC20ED11C20E0CD
:1013F0000F2D060F9A81342F307144FF03C09133B3
:1014000009F40150101624F4093018F008E001C066
:1014100001E0AB0177FF02C040E050E0FB01E41BBC
:10142000F50BA1E0B0E0AC0FBD1FEA0FFB1F8EE291
:10143000A82E4B01801A91080B2D10E011950195F3
:1014400011094F3FBFEF5B0721F4D601AC92119613
:101450006D01641775072CF08416950614F48181CC
:1014600001C080E3415051093196D60111967D01AA
:101470004017510724F0D6018C936701E2CF64171F
:10148000750739F4963320F4953319F4311101C0FE
:1014900081E3F6018083F701822F90E2882319F01F
:1014A00091938150FBCFF701E20FF11D108280E094
:1014B00090E02996ECE00C947B0C283008F027E0B3
:1014C0003327DA01990F311D87FD91600096610580
:1014D000710539F432602E5F3D9330E32A95E1F7D0
:1014E00008959F3F30F080387105610509F03C5F39
:1014F0003C5F3D93913008F08068911DDF93CF935E
:101500001F930F93FF92EF92192F987F9695E92FD3
:1015100096959695E90FFF27EE53FF4F99273327AE
:10152000EE24FF24A701E70105900894079428F40E
:10153000360FE71EF81E491F511D660F771F881FC3
:10154000991F0694A1F70590079428F4E70EF81E5A
:10155000491F561FC11D770F881F991F661F0694CC
:10156000A1F70590079428F4F80E491F561FC71FCE
:10157000D11D880F991F661F771F0694A1F705904C
:10158000079420F4490F561FC71FD81F990F661FD5
:10159000771F881F0694A9F784911095177041F062
:1015A000D695C79557954795F794E7941A95C1F73F
:1015B000E8E6F0E068941590159135916591959164
:1015C00005907FE27395E118F10A430B560BC90BA6
:1015D000D009C0F7E10CF11E431F561FC91FD01DD3
:1015E0007EF4703311F48A95E6CFE894015030F020
:1015F000080F0AF40027021708F4202F2395022F62
:101600007A3328F079E37D932A95E9F710C07D932A
:101610002A9589F6069497956795379517951794A7
:10162000E118F10A430B560BC90BD00998F023952A
:101630007E9173957A3308F070E37C932013B8F7AA
:101640007E9170617D9330F0839571E37D9370E3BB
:101650002A95E1F71124EF90FF900F911F91CF9100
:10166000DF91992787FD909508950E94770B08F4E4
:1016700081E00895E89409C097FB3EF49095809529
:10168000709561957F4F8F4F9F4F9923A9F0F92F48
:1016900096E9BB279395F695879577956795B795C6
:1016A000F111F8CFFAF4BB0F11F460FF1BC06F5FAC
:1016B0007F4F8F4F9F4F16C0882311F096E911C0BE
:1016C000772321F09EE8872F762F05C0662371F0DF
:1016D00096E8862F70E060E02AF09A95660F771FF3
:1016E000881FDAF7880F9695879597F90895990FCF
:1016F0000008550FAA0BE0E8FEEF16161706E807DC
:10170000F907C0F012161306E407F50798F0621BFC
:10171000730B840B950B39F40A2661F0232B242BD1
:10172000252B21F408950A2609F4A140A6958FEFF0
:10173000811D811D08950E94AE0B0C941F0C0E9408
:10174000110C38F00E94180C20F0952311F00C9425
:10175000080C0C940E0C11240C94530C0E94300CA9
:1017600070F3959FC1F3950F50E0551F629FF001F4
:10177000729FBB27F00DB11D639FAA27F00DB11D0D
:10178000AA1F649F6627B00DA11D661F829F222796
:10179000B00DA11D621F739FB00DA11D621F839F1D
:1017A000A00D611D221F749F3327A00D611D231FF3
:1017B000849F600D211D822F762F6A2F11249F5741
:1017C00050409AF0F1F088234AF0EE0FFF1FBB1F44
:1017D000661F771F881F91505040A9F79E3F510503
:1017E00080F00C94080C0C94530C5F3FE4F3983E8B
:1017F000D4F3869577956795B795F795E7959F5FAD
:10180000C1F7FE2B880F911D9695879597F908953E
:1018100097F99F6780E870E060E008959FEF80ECA3
:10182000089500240A941616170618060906089546
:1018300000240A9412161306140605060895092EAC
:101840000394000C11F4882352F0BB0F40F4BF2B1B
:1018500011F460FF04C06F5F7F4F8F4F9F4F08955B
:1018600057FD9058440F551F59F05F3F71F0479551
:10187000880F97FB991F61F09F3F79F08795089536
:10188000121613061406551FF2CF4695F1DF08C055
:10189000161617061806991FF1CF86957105610572
:1018A00008940895E894BB2766277727CB0197F91A
:1018B00008952F923F924F925F926F927F928F92F4
:1018C0009F92AF92BF92CF92DF92EF92FF920F93CF
:1018D0001F93CF93DF93CDB7DEB7CA1BDB0B0FB6D9
:1018E000F894DEBF0FBECDBF09942A883988488896
:1018F0005F846E847D848C849B84AA84B984C8842C
:10190000DF80EE80FD800C811B81AA81B981CE0F22
:10191000D11D0FB6F894DEBF0FBECDBFED01089507
:10192000A1E21A2EAA1BBB1BFD010DC0AA1FBB1FE3
:10193000EE1FFF1FA217B307E407F50720F0A21B55
:10194000B30BE40BF50B661F771F881F991F1A94C2
:1019500069F760957095809590959B01AC01BD01EC
:10196000CF010895EE0FFF1F0590F491E02D09942B
:101970005058BB27AA270E94D00C0C941F0C0E9421
:10198000110C38F00E94180C20F039F49F3F19F424
:1019900026F40C940E0C0EF4E095E7FB0C94080C66
:1019A000E92F0E94300C58F3BA17620773078407B7
:1019B000950720F079F4A6F50C94520C0EF4E095FE
:1019C0000B2EBA2FA02D0B01B90190010C01CA01F9
:1019D000A0011124FF27591B99F0593F50F4503EA4
:1019E00068F11A16F040A22F232F342F4427585F96
:1019F000F3CF469537952795A795F0405395C9F7AE
:101A00007EF41F16BA0B620B730B840BBAF0915065
:101A1000A1F0FF0FBB1F661F771F881FC2F70EC004
:101A2000BA0F621F731F841F48F4879577956795D7
:101A3000B795F7959E3F08F0B0CF9395880F08F0C3
:101A40009927EE0F9795879508950E94390D0C946C
:101A50001F0C0E94180C58F00E94110C40F029F441
:101A60005F3F29F00C94080C51110C94530C0C940A
:101A70000E0C0E94300C68F39923B1F3552391F3B7
:101A8000951B550BBB27AA2762177307840738F0ED
:101A90009F5F5F4F220F331F441FAA1FA9F335D04A
:101AA0000E2E3AF0E0E832D091505040E695001CFE
:101AB000CAF72BD0FE2F29D0660F771F881FBB1FB8
:101AC000261737074807AB07B0E809F0BB0B802D96
:101AD000BF01FF2793585F4F3AF09E3F510578F0C2
:101AE0000C94080C0C94530C5F3FE4F3983ED4F331
:101AF000869577956795B795F7959F5FC9F7880F96
:101B0000911D9695879597F90895E1E0660F771FE7
:101B1000881FBB1F621773078407BA0720F0621B78
:101B2000730B840BBA0BEE1F88F7E09508950E94A3
:101B3000380C88F09F5798F0B92F9927B751B0F01B
:101B4000E1F0660F771F881F991F1AF0BA95C9F741
:101B500014C0B13091F00E94520CB1E008950C9481
:101B6000520C672F782F8827B85F39F0B93FCCF334
:101B7000869577956795B395D9F73EF490958095BE
:101B8000709561957F4F8F4F9F4F08950E94770BFF
:101B900008F48FEF08950E94770B880B990B089536
:101BA0000F931F93CF93DF938230910510F482E05F
:101BB00090E0E091C602F091C70220E030E0A0E0A2
:101BC000B0E0309719F140815181028113814817AB
:101BD0005907C8F08417950769F4109731F01296E9
:101BE0000C93129713961C9327C00093C602109370
:101BF000C70222C02115310519F04217530718F406
:101C00009A01BD01EF01DF01F801DBCF211531059C
:101C1000F9F0281B390B2430310580F48A819B812F
:101C20006115710521F0FB019383828304C09093B9
:101C3000C7028093C602FE01329644C0FE01E20F45
:101C4000F31F8193919322503109398328833AC03D
:101C50002091C4023091C502232B41F4209102014E
:101C6000309103013093C5022093C40220910001FA
:101C7000309101012115310541F42DB73EB7409156
:101C8000040150910501241B350BE091C402F09131
:101C9000C502E217F307A0F42E1B3F0B28173907E4
:101CA00078F0AC014E5F5F4F2417350748F04E0FB8
:101CB0005F1F5093C5024093C4028193919302C069
:101CC000E0E0F0E0CF01DF91CF911F910F910895F7
:101CD000CF93DF93009709F481C0FC013297138200
:101CE0001282A091C602B091C702109781F42081A0
:101CF0003181820F931F2091C4023091C5022817B1
:101D0000390751F5F093C502E093C40267C0ED01B5
:101D100020E030E0CE17DF0740F44A815B819E016E
:101D200041155105F1F0EA01F5CFD383C28340811B
:101D30005181840F951FC817D90759F4888199815B
:101D4000840F951F0296918380838A819B81938360
:101D500082832115310529F4F093C702E093C6026E
:101D60003DC0E901FB83EA8349915991C40FD51F16
:101D7000EC17FD0761F480819181840F951F029615
:101D8000E90199838883828193819B838A83E0E040
:101D9000F0E012968D919C911397009719F0FD0138
:101DA000DC01F7CF8D919C9111979D012E5F3F4FE4
:101DB000820F931F2091C4023091C5022817390762
:101DC00069F4309729F41092C7021092C60202C03B
:101DD00013821282B093C502A093C402DF91CF9107
:101DE0000895A0E0B0E0E7EFFEE00C945D0CEC019C
:101DF000009721F4CB010E94D00DB4C0FC01E60F86
:101E0000F71F9C0122503109E217F30708F4A8C01C
:101E1000D9010D911C91119706171707B0F00530E5
:101E2000110508F49BC0C80104978617970708F4AA
:101E300095C002501109061B170B019311936D9366
:101E40007C93CF010E94680E89C05B01A01AB10A81
:101E50004C01800E911EA091C602B091C702612C68
:101E6000712CE12CF12C109709F446C08D919C91B6
:101E70001197A815B905B1F56C0142E0C40ED11C4B
:101E8000CA14DB0478F14C018A189B08640142E013
:101E9000C40ED11C1296BC9012971396AC91B5E06B
:101EA000CB16D10440F0B282A38391828082D90103
:101EB0006D937C9309C00E5F1F4F800F911FF90136
:101EC00091838083EB2DFA2FE114F10431F0D701D7
:101ED0001396FC93EE93129741C0F093C702E093E0
:101EE000C6023CC06816790608F43C017D011296D2
:101EF0000D90BC91A02DB7CF8091C4029091C502E6
:101F000088169906E1F466167706C8F480910001F8
:101F100090910101009741F48DB79EB74091040163
:101F200050910501841B950BE817F907C8F4F0934D
:101F3000C502E093C402F901718360830FC0CB0135
:101F40000E94D00D7C01009759F0A801BE010E94AB
:101F5000BC0FCE010E94680EC70104C0CE0102C0B2
:101F600080E090E0CDB7DEB7EEE00C94790C81E034
:101F700090E0F8940C94DB0FFB01DC0102C00190AF
:101F80000D9241505040D8F70895FB01DC010190BB
:101F90000D920020E1F70895FB01DC014150504013
:101FA00048F001900D920020C9F701C01D924150E8
:0A1FB0005040E0F70895F894FFCFC9
:101FBA000000C802200000000000A30210023A023A
:101FCA00F0026B0249025D020000000085037A03F9
:101FDA0097034E0372035E034F036E616E00696ED0
:101FEA0066006F7666000D0A004D4C383531312097
:101FFA006F75747075743A2000202F204D4C383557
:10200A00313120766F6C746167653A2000202F2089
:10201A00555620496E74656E7369747920286D5718
:0A202A002F636D5E32293A2000009A
:00000001FF
